:020000040000FA
:100000000128831680308600FF3087008801831224
:1000100086018701861F0A280708B3000617861B7A
:100020000F280613861F12280708B2000617861B22
:100030001728061333080F39B1003308F039B00020
:10004000B00E30083208800003013107800B2528EC
:10005000B500B4010A30B502B40AB51F2B28B507A4
:10006000B4033508B6003408B700360832088000FB
:1000700003013007800B3928B500B4010A30B502FE
:10008000B40AB51F3F28B507B4033408B8003508D3
:10009000B7070318B80A3808831687018312360891
:1000A00087000617861F5228061365203708870029
:1000B0000617861F5928061365203808870006177B
:1000C000861F6028061365200128831600309000E3
:1000D00058308E009E308F0083120C1010140C1CB0
:0400E0006F2808007D
:0400E40000340034B0
:02400E00F23F7F
:00000001FF
